{
  "contractName": "userId",
  "abi": [
    {
      "inputs": [],
      "name": "user1",
      "outputs": [
        {
          "internalType": "string",
          "name": "",
          "type": "string"
        }
      ],
      "stateMutability": "view",
      "type": "function",
      "constant": true
    },
    {
      "inputs": [],
      "name": "user2",
      "outputs": [
        {
          "internalType": "string",
          "name": "",
          "type": "string"
        }
      ],
      "stateMutability": "view",
      "type": "function",
      "constant": true
    },
    {
      "inputs": [
        {
          "internalType": "string",
          "name": "_user1",
          "type": "string"
        },
        {
          "internalType": "string",
          "name": "_user2",
          "type": "string"
        }
      ],
      "name": "storeData",
      "outputs": [],
      "stateMutability": "nonpayable",
      "type": "function"
    }
  ],
  "bytecode": "0x608060405234801561001057600080fd5b50610554806100206000396000f3fe608060405234801561001057600080fd5b50600436106100415760003560e01c80634ece5b4c14610046578063ac1717b014610062578063b9edb1af14610080575b600080fd5b610060600480360381019061005b91906102f7565b61009e565b005b61006a6100d0565b604051610077919061039c565b60405180910390f35b61008861015e565b604051610095919061039c565b60405180910390f35b81600090805190602001906100b49291906101ec565b5080600190805190602001906100cb9291906101ec565b505050565b600080546100dd9061047d565b80601f01602080910402602001604051908101604052809291908181526020018280546101099061047d565b80156101565780601f1061012b57610100808354040283529160200191610156565b820191906000526020600020905b81548152906001019060200180831161013957829003601f168201915b505050505081565b6001805461016b9061047d565b80601f01602080910402602001604051908101604052809291908181526020018280546101979061047d565b80156101e45780601f106101b9576101008083540402835291602001916101e4565b820191906000526020600020905b8154815290600101906020018083116101c757829003601f168201915b505050505081565b8280546101f89061047d565b90600052602060002090601f01602090048101928261021a5760008555610261565b82601f1061023357805160ff1916838001178555610261565b82800160010185558215610261579182015b82811115610260578251825591602001919060010190610245565b5b50905061026e9190610272565b5090565b5b8082111561028b576000816000905550600101610273565b5090565b60006102a261029d846103ef565b6103be565b9050828152602081018484840111156102ba57600080fd5b6102c584828561043b565b509392505050565b600082601f8301126102de57600080fd5b81356102ee84826020860161028f565b91505092915050565b6000806040838503121561030a57600080fd5b600083013567ffffffffffffffff81111561032457600080fd5b610330858286016102cd565b925050602083013567ffffffffffffffff81111561034d57600080fd5b610359858286016102cd565b9150509250929050565b600061036e8261041f565b610378818561042a565b935061038881856020860161044a565b6103918161050d565b840191505092915050565b600060208201905081810360008301526103b68184610363565b905092915050565b6000604051905081810181811067ffffffffffffffff821117156103e5576103e46104de565b5b8060405250919050565b600067ffffffffffffffff82111561040a576104096104de565b5b601f19601f8301169050602081019050919050565b600081519050919050565b600082825260208201905092915050565b82818337600083830152505050565b60005b8381101561046857808201518184015260208101905061044d565b83811115610477576000848401525b50505050565b6000600282049050600182168061049557607f821691505b602082108114156104a9576104a86104af565b5b50919050565b7f4e487b7100000000000000000000000000000000000000000000000000000000600052602260045260246000fd5b7f4e487b7100000000000000000000000000000000000000000000000000000000600052604160045260246000fd5b6000601f19601f830116905091905056fea26469706673582212204408a6088ece31ef8ecd6f6f574086a853dcfc32954b090cc345d8d2748a310b64736f6c63430008000033",
  "immutableReferences": {},
  "source": "pragma solidity ^0.8.0;\r\n\r\ncontract userId {\r\n    string public user1;\r\n    string public user2;\r\n\r\n    function storeData(string memory _user1, string memory _user2) public {\r\n        user1 = _user1;\r\n        user2 = _user2;\r\n    }\r\n}\r\n",
  "sourcePath": "C:\\Users\\Anant\\Downloads\\Hackwave\\block\\blockchain\\contracts\\userId.sol",
  "compiler": {
    "name": "solc",
    "version": "0.8.0+commit.c7dfd78e.Emscripten.clang"
  },
  "schemaVersion": "3.4.16",
  "updatedAt": "2023-10-15T06:07:53.830Z",
  "networkType": "ethereum",
  "devdoc": {
    "kind": "dev",
    "methods": {},
    "version": 1
  },
  "userdoc": {
    "kind": "user",
    "methods": {},
    "version": 1
  }
}